{
  "contractName": "CrowdFund",
  "abi": [
    {
      "inputs": [
        {
          "internalType": "uint256",
          "name": "_duration",
          "type": "uint256"
        },
        {
          "internalType": "uint256",
          "name": "_threshold",
          "type": "uint256"
        },
        {
          "internalType": "address",
          "name": "_receiver",
          "type": "address"
        }
      ],
      "stateMutability": "nonpayable",
      "type": "constructor"
    },
    {
      "anonymous": false,
      "inputs": [
        {
          "indexed": false,
          "internalType": "address",
          "name": "receiverAddress",
          "type": "address"
        },
        {
          "indexed": false,
          "internalType": "uint256",
          "name": "amount",
          "type": "uint256"
        }
      ],
      "name": "CompleteFundSent",
      "type": "event"
    },
    {
      "anonymous": false,
      "inputs": [
        {
          "indexed": false,
          "internalType": "address",
          "name": "creator",
          "type": "address"
        },
        {
          "indexed": false,
          "internalType": "address",
          "name": "receiver",
          "type": "address"
        },
        {
          "indexed": false,
          "internalType": "uint256",
          "name": "goal",
          "type": "uint256"
        },
        {
          "indexed": false,
          "internalType": "uint256",
          "name": "deadline",
          "type": "uint256"
        }
      ],
      "name": "FundCreated",
      "type": "event"
    },
    {
      "anonymous": false,
      "inputs": [
        {
          "indexed": true,
          "internalType": "uint256",
          "name": "when",
          "type": "uint256"
        },
        {
          "indexed": false,
          "internalType": "address",
          "name": "founder",
          "type": "address"
        },
        {
          "indexed": false,
          "internalType": "uint256",
          "name": "amount",
          "type": "uint256"
        }
      ],
      "name": "FundReceived",
      "type": "event"
    },
    {
      "anonymous": false,
      "inputs": [],
      "name": "Open",
      "type": "event"
    },
    {
      "anonymous": false,
      "inputs": [
        {
          "indexed": false,
          "internalType": "address",
          "name": "who",
          "type": "address"
        },
        {
          "indexed": false,
          "internalType": "uint256",
          "name": "amount",
          "type": "uint256"
        }
      ],
      "name": "Withdrawal",
      "type": "event"
    },
    {
      "stateMutability": "payable",
      "type": "receive",
      "payable": true
    },
    {
      "inputs": [],
      "name": "getBalance",
      "outputs": [
        {
          "internalType": "uint256",
          "name": "",
          "type": "uint256"
        }
      ],
      "stateMutability": "view",
      "type": "function",
      "constant": true
    },
    {
      "inputs": [],
      "name": "getTimeLeft",
      "outputs": [
        {
          "internalType": "uint256",
          "name": "",
          "type": "uint256"
        }
      ],
      "stateMutability": "view",
      "type": "function",
      "constant": true
    },
    {
      "inputs": [],
      "name": "fund",
      "outputs": [],
      "stateMutability": "payable",
      "type": "function",
      "payable": true
    },
    {
      "inputs": [],
      "name": "execute",
      "outputs": [],
      "stateMutability": "nonpayable",
      "type": "function"
    },
    {
      "inputs": [],
      "name": "withdraw",
      "outputs": [],
      "stateMutability": "nonpayable",
      "type": "function"
    }
  ],
  "bytecode": "0x60e06040526000600160006101000a81548160ff02191690831515021790555060006001806101000a81548160ff0219169083151502179055503480156200004657600080fd5b50604051620012c0380380620012c083398181016040528101906200006c919062000267565b600073ffffffffffffffffffffffffffffffffffffffff168173ffffffffffffffffffffffffffffffffffffffff1603620000de576040517f08c379a0000000000000000000000000000000000000000000000000000000008152600401620000d5906200034a565b60405180910390fd5b6276a70083111562000127576040517f08c379a00000000000000000000000000000000000000000000000000000000081526004016200011e90620003e2565b60405180910390fd5b8160c0818152505082426200013d919062000433565b60a081815250508073ffffffffffffffffffffffffffffffffffffffff1660808173ffffffffffffffffffffffffffffffffffffffff16815250507ff5af072cf6b158722f7c3611e2baa936724a3472791855258c7b8070594d3fd833828460a051604051620001b19493929190620004b2565b60405180910390a1505050620004ff565b600080fd5b6000819050919050565b620001dc81620001c7565b8114620001e857600080fd5b50565b600081519050620001fc81620001d1565b92915050565b600073ffffffffffffffffffffffffffffffffffffffff82169050919050565b60006200022f8262000202565b9050919050565b620002418162000222565b81146200024d57600080fd5b50565b600081519050620002618162000236565b92915050565b600080600060608486031215620002835762000282620001c2565b5b60006200029386828701620001eb565b9350506020620002a686828701620001eb565b9250506040620002b98682870162000250565b9150509250925092565b600082825260208201905092915050565b7f43726f776446756e643a2046756e6472616973696e672072656365697665722060008201527f63616e6e6f74206265206164647265737320302e000000000000000000000000602082015250565b600062000332603483620002c3565b91506200033f82620002d4565b604082019050919050565b60006020820190508181036000830152620003658162000323565b9050919050565b7f43726f776446756e643a2046756e644475726174696f6e206d757374206e6f7460008201527f2065786365656420393020646179732e00000000000000000000000000000000602082015250565b6000620003ca603083620002c3565b9150620003d7826200036c565b604082019050919050565b60006020820190508181036000830152620003fd81620003bb565b9050919050565b7f4e487b7100000000000000000000000000000000000000000000000000000000600052601160045260246000fd5b60006200044082620001c7565b91506200044d83620001c7565b9250827fffffffffffffffffffffffffffffffffffffffffffffffffffffffffffffffff0382111562000485576200048462000404565b5b828201905092915050565b6200049b8162000222565b82525050565b620004ac81620001c7565b82525050565b6000608082019050620004c9600083018762000490565b620004d8602083018662000490565b620004e76040830185620004a1565b620004f66060830184620004a1565b95945050505050565b60805160a05160c051610d766200054a600039600061053b01526000818160f20152818161046e015281816106ee015261071601526000818161058a01526105cb0152610d766000f3fe60806040526004361061004e5760003560e01c806312065fe0146100625780633ccfd60b1461008d57806361461954146100a4578063b60d4288146100bb578063c7e284b8146100c55761005d565b3661005d5761005b6100f0565b005b600080fd5b34801561006e57600080fd5b50610077610226565b6040516100849190610767565b60405180910390f35b34801561009957600080fd5b506100a261022e565b005b3480156100b057600080fd5b506100b961046c565b005b6100c36100f0565b005b3480156100d157600080fd5b506100da6106e9565b6040516100e79190610767565b60405180910390f35b7f00000000000000000000000000000000000000000000000000000000000000004210610152576040517f08c379a000000000000000000000000000000000000000000000000000000000815260040161014990610805565b60405180910390fd5b60003411610195576040517f08c379a000000000000000000000000000000000000000000000000000000000815260040161018c90610897565b60405180910390fd5b427f57e19e2aa06e728bbca970637be628efcda39018466d09026b4d04232479acb833346040516101c79291906108f8565b60405180910390a2346000803373ffffffffffffffffffffffffffffffffffffffff1673ffffffffffffffffffffffffffffffffffffffff168152602001908152602001600020600082825461021d9190610950565b92505081905550565b600047905090565b60018054906101000a900460ff1661027b576040517f08c379a000000000000000000000000000000000000000000000000000000000815260040161027290610a3e565b60405180910390fd5b60008060003373ffffffffffffffffffffffffffffffffffffffff1673ffffffffffffffffffffffffffffffffffffffff16815260200190815260200160002054116102fc576040517f08c379a00000000000000000000000000000000000000000000000000000000081526004016102f390610aaa565b60405180910390fd5b60008060003373ffffffffffffffffffffffffffffffffffffffff1673ffffffffffffffffffffffffffffffffffffffff16815260200190815260200160002054905060008060003373ffffffffffffffffffffffffffffffffffffffff1673ffffffffffffffffffffffffffffffffffffffff168152602001908152602001600020819055507f7fcf532c15f0a6db0bd6d0e038bea71d30d808c7d98cb3bf7268a95bf5081b6533826040516103b49291906108f8565b60405180910390a160003373ffffffffffffffffffffffffffffffffffffffff16826040516103e290610afb565b60006040518083038185875af1925050503d806000811461041f576040519150601f19603f3d011682016040523d82523d6000602084013e610424565b606091505b5050905080610468576040517f08c379a000000000000000000000000000000000000000000000000000000000815260040161045f90610b5c565b60405180910390fd5b5050565b7f00000000000000000000000000000000000000000000000000000000000000004210156104cf576040517f08c379a00000000000000000000000000000000000000000000000000000000081526004016104c690610bee565b60405180910390fd5b600160009054906101000a900460ff161561051f576040517f08c379a000000000000000000000000000000000000000000000000000000000815260040161051690610c80565b60405180910390fd5b60018060006101000a81548160ff0219169083151502179055507f0000000000000000000000000000000000000000000000000000000000000000610562610226565b106106a0577f6f19675be3ad01c171d13b7c79650e90dc31ed5acc9cad918041399c8f1294107f00000000000000000000000000000000000000000000000000000000000000006105b1610226565b6040516105bf9291906108f8565b60405180910390a160007f000000000000000000000000000000000000000000000000000000000000000073ffffffffffffffffffffffffffffffffffffffff16610608610226565b60405161061490610afb565b60006040518083038185875af1925050503d8060008114610651576040519150601f19603f3d011682016040523d82523d6000602084013e610656565b606091505b505090508061069a576040517f08c379a000000000000000000000000000000000000000000000000000000000815260040161069190610cec565b60405180910390fd5b506106e7565b60018060016101000a81548160ff0219169083151502179055507f59ebeb90bc63057b6515673c3ecf9438e5058bca0f92585014eced636878c9a560405160405180910390a15b565b6000427f0000000000000000000000000000000000000000000000000000000000000000111561074657427f000000000000000000000000000000000000000000000000000000000000000061073f9190610d0c565b905061074b565b600090505b90565b6000819050919050565b6107618161074e565b82525050565b600060208201905061077c6000830184610758565b92915050565b600082825260208201905092915050565b7f43726f776446756e643a2046756e64696e67207068617365206973206f76657260008201527f20616c7265616479000000000000000000000000000000000000000000000000602082015250565b60006107ef602883610782565b91506107fa82610793565b604082019050919050565b6000602082019050818103600083015261081e816107e2565b9050919050565b7f43726f776446756e643a205573657220686173206e6f2066756e64732064657060008201527f6f73697465640000000000000000000000000000000000000000000000000000602082015250565b6000610881602683610782565b915061088c82610825565b604082019050919050565b600060208201905081810360008301526108b081610874565b9050919050565b600073ffffffffffffffffffffffffffffffffffffffff82169050919050565b60006108e2826108b7565b9050919050565b6108f2816108d7565b82525050565b600060408201905061090d60008301856108e9565b61091a6020830184610758565b9392505050565b7f4e487b7100000000000000000000000000000000000000000000000000000000600052601160045260246000fd5b600061095b8261074e565b91506109668361074e565b9250827fffffffffffffffffffffffffffffffffffffffffffffffffffffffffffffffff0382111561099b5761099a610921565b5b828201905092915050565b7f43726f776446756e643a20436f6e7472616374206973206e6f74206f70656e2060008201527f666f72207769746864726177202d2066756e64696e6720636f6e74696e75657360208201527f202f207468726573686f6c642072656163686564000000000000000000000000604082015250565b6000610a28605483610782565b9150610a33826109a6565b606082019050919050565b60006020820190508181036000830152610a5781610a1b565b9050919050565b7f43726f776446756e643a204e6f2066756e647320746f20776974686472617700600082015250565b6000610a94601f83610782565b9150610a9f82610a5e565b602082019050919050565b60006020820190508181036000830152610ac381610a87565b9050919050565b600081905092915050565b50565b6000610ae5600083610aca565b9150610af082610ad5565b600082019050919050565b6000610b0682610ad8565b9150819050919050565b7f43726f776446756e643a205769746864726177206661696c6564000000000000600082015250565b6000610b46601a83610782565b9150610b5182610b10565b602082019050919050565b60006020820190508181036000830152610b7581610b39565b9050919050565b7f43726f776446756e643a2054686520646561646c696e65206973206e6f74206f60008201527f7665722079657400000000000000000000000000000000000000000000000000602082015250565b6000610bd8602783610782565b9150610be382610b7c565b604082019050919050565b60006020820190508181036000830152610c0781610bcb565b9050919050565b7f43726f776446756e643a20436f6e747261637420686173206265656e2065786560008201527f637574656420616c726561647900000000000000000000000000000000000000602082015250565b6000610c6a602d83610782565b9150610c7582610c0e565b604082019050919050565b60006020820190508181036000830152610c9981610c5d565b9050919050565b7f43726f776446756e640000000000000000000000000000000000000000000000600082015250565b6000610cd6600983610782565b9150610ce182610ca0565b602082019050919050565b60006020820190508181036000830152610d0581610cc9565b9050919050565b6000610d178261074e565b9150610d228361074e565b925082821015610d3557610d34610921565b5b82820390509291505056fea2646970667358221220c68946f4ad0dfdea8f9fe062795341d9ff3b290d087ae0415db692c7c06b2acb64736f6c634300080d0033",
  "immutableReferences": {
    "46": [
      {
        "length": 32,
        "start": 1418
      },
      {
        "length": 32,
        "start": 1483
      }
    ],
    "49": [
      {
        "length": 32,
        "start": 242
      },
      {
        "length": 32,
        "start": 1134
      },
      {
        "length": 32,
        "start": 1774
      },
      {
        "length": 32,
        "start": 1814
      }
    ],
    "52": [
      {
        "length": 32,
        "start": 1339
      }
    ]
  },
  "source": "// SPDX-License-Identifier: MIT\npragma solidity ^0.8.0;\n\n/**\n * @notice Contract implements mechanism of crowd funding services - allows anybody create CrowdFund contract and collect money for any goal.\n * @notice Events are keeping track of current funding state. Modifiers are protecting from withdrawing funds before fundraising ends.\n * @notice When fundraising phase is over then users can withdraw their funds if goal is not reached, otherwise funds are sent to presetted receiver. \n * @author kchn9\n */\ncontract CrowdFund {\n\n    /// @notice Informs who is founder creator, who is receiver, what is the goal and deadline when fundraising ends\n    event FundCreated(address creator, address receiver, uint goal, uint deadline);\n\n    /// @notice Event emitted whenever contract receives funds\n    event FundReceived(uint indexed when, address founder, uint amount);\n\n    /// @notice Emited when founders are allowed to withdraw their funds\n    event Open();\n\n    /// @notice Keeping an eye on withdrawals\n    event Withdrawal(address who, uint amount);\n\n    /// @notice If crowd fund is fully collected and sent to receiver then event is emitted\n    event CompleteFundSent(address receiverAddress, uint amount);\n\n    /// @notice Maximum funding time accepted by contract \n    uint constant MAX_DURATION = 90 days;\n\n    /// @notice Representation of any crowd fund receiver, it might be either contract or EOA\n    address immutable _RECEIVER;\n\n    /// @notice Amount of time that crowd fund is valid\n    uint immutable _DEADLINE;\n\n    /// @notice The minimum amount of ETH that must be collected by founders to \n    uint immutable _THRESHOLD;\n\n    constructor(uint _duration, uint _threshold, address _receiver) {\n        require(_receiver != address(0), \"CrowdFund: Fundraising receiver cannot be address 0.\");\n        require(_duration <= MAX_DURATION, \"CrowdFund: FundDuration must not exceed 90 days.\");\n        _THRESHOLD = _threshold;\n        _DEADLINE = block.timestamp + _duration;\n        _RECEIVER = _receiver;\n        emit FundCreated(msg.sender, _receiver, _threshold, _DEADLINE);\n    }\n\n    /// @notice Keep track of user balances\n    mapping ( address => uint ) internal _balances;\n\n    /// @notice Keep track if contract was executed already\n    bool wasExecuted = false;\n\n    /// @notice Bool allowing users to withdraw if threshold was not exceeded\n    bool openForWithdraw = false;\n\n    /// @notice Access modifier to allow call functions only before funding is over\n    modifier fundingOnly() {\n        require(block.timestamp < _DEADLINE, \"CrowdFund: Funding phase is over already\");\n        _;\n    }\n\n    /// @notice Getter for current contract balance\n    function getBalance() public view returns(uint256) {\n        return address(this).balance;\n    }\n\n    /**\n     * @notice Getter to keep eye on how much time left before funding phase ends\n     */\n    function getTimeLeft() public view returns(uint256) {\n        if (_DEADLINE > block.timestamp) {\n            return _DEADLINE - block.timestamp;\n        } else {\n            return 0;\n        }\n    }\n\n    /**\n     * @notice Receiving incoming funds\n     * @dev Emits FundReceived event\n     */\n    function fund() public payable fundingOnly {\n        require(msg.value > 0, \"CrowdFund: User has no funds deposited\");\n        emit FundReceived(block.timestamp, msg.sender, msg.value);\n        _balances[msg.sender] += msg.value;\n    }\n\n    /**\n     * @dev Fallback function for ETH that been sent directionally\n     */\n    receive() external payable {\n        fund();\n    }\n\n    /**\n     * @notice Checks if funding phase time is up and if treshold is reached - if so it send money to external contract,\n     * if not it allow users to withdraw their coins. It may be called only once.\n     * @dev Emits either CompleteFundSent(address, uint) or Open() events, depends if threshold is exceeded\n     */\n    function execute() external {\n        require(block.timestamp >= _DEADLINE, \"CrowdFund: The deadline is not over yet\");\n        require(!wasExecuted, \"CrowdFund: Contract has been executed already\");\n        wasExecuted = true;\n        if (getBalance() >= _THRESHOLD) {\n            emit CompleteFundSent(address(_RECEIVER), getBalance());\n            (bool success, /*data*/) = _RECEIVER.call{ value: getBalance() }(\"\");\n            require(success, \"CrowdFund\");\n        } else {\n            openForWithdraw = true;\n            emit Open();\n        }\n        \n    }\n\n    /**\n     * @notice Allows users to withdraw their funds if funding phase is over\n     * @dev Emits Withdrawal event\n     */\n    function withdraw() external {\n        require(openForWithdraw, \"CrowdFund: Contract is not open for withdraw - funding continues / threshold reached\");\n        require(_balances[msg.sender] > 0, \"CrowdFund: No funds to withdraw\");\n\n        uint toWithdraw = _balances[msg.sender];\n        _balances[msg.sender] = 0;\n        emit Withdrawal(msg.sender, toWithdraw);\n\n        (bool success, /*data*/) = msg.sender.call{ value: toWithdraw }(\"\");\n        require(success, \"CrowdFund: Withdraw failed\");\n    }\n}",
  "sourcePath": "/Users/matkuch/Code/crowd-fund/contracts/CrowdFund.sol",
  "compiler": {
    "name": "solc",
    "version": "0.8.13+commit.abaa5c0e.Emscripten.clang"
  },
  "schemaVersion": "3.4.7",
  "updatedAt": "2022-04-25T18:28:27.747Z",
  "networkType": "ethereum",
  "devdoc": {
    "author": "kchn9",
    "kind": "dev",
    "methods": {
      "execute()": {
        "details": "Emits either CompleteFundSent(address, uint) or Open() events, depends if threshold is exceeded"
      },
      "fund()": {
        "details": "Emits FundReceived event"
      },
      "withdraw()": {
        "details": "Emits Withdrawal event"
      }
    },
    "version": 1
  },
  "userdoc": {
    "events": {
      "CompleteFundSent(address,uint256)": {
        "notice": "If crowd fund is fully collected and sent to receiver then event is emitted"
      },
      "FundCreated(address,address,uint256,uint256)": {
        "notice": "Informs who is founder creator, who is receiver, what is the goal and deadline when fundraising ends"
      },
      "FundReceived(uint256,address,uint256)": {
        "notice": "Event emitted whenever contract receives funds"
      },
      "Open()": {
        "notice": "Emited when founders are allowed to withdraw their funds"
      },
      "Withdrawal(address,uint256)": {
        "notice": "Keeping an eye on withdrawals"
      }
    },
    "kind": "user",
    "methods": {
      "execute()": {
        "notice": "Checks if funding phase time is up and if treshold is reached - if so it send money to external contract, if not it allow users to withdraw their coins. It may be called only once."
      },
      "fund()": {
        "notice": "Receiving incoming funds"
      },
      "getBalance()": {
        "notice": "Getter for current contract balance"
      },
      "getTimeLeft()": {
        "notice": "Getter to keep eye on how much time left before funding phase ends"
      },
      "withdraw()": {
        "notice": "Allows users to withdraw their funds if funding phase is over"
      }
    },
    "notice": "Contract implements mechanism of crowd funding services - allows anybody create CrowdFund contract and collect money for any goal.Events are keeping track of current funding state. Modifiers are protecting from withdrawing funds before fundraising ends.When fundraising phase is over then users can withdraw their funds if goal is not reached, otherwise funds are sent to presetted receiver. ",
    "version": 1
  }
}