{
  "contractName": "ExternalContract",
  "abi": [
    {
      "anonymous": false,
      "inputs": [
        {
          "indexed": false,
          "internalType": "uint256",
          "name": "collectedAmount",
          "type": "uint256"
        }
      ],
      "name": "Complete",
      "type": "event"
    },
    {
      "inputs": [],
      "name": "complete",
      "outputs": [],
      "stateMutability": "payable",
      "type": "function"
    },
    {
      "inputs": [],
      "name": "getBalance",
      "outputs": [
        {
          "internalType": "uint256",
          "name": "",
          "type": "uint256"
        }
      ],
      "stateMutability": "view",
      "type": "function"
    }
  ],
  "bytecode": "0x608060405234801561001057600080fd5b5060fe8061001f6000396000f3fe60806040526004361060265760003560e01c806312065fe014602b578063522e1177146051575b600080fd5b348015603657600080fd5b50603d6059565b6040516048919060af565b60405180910390f35b60576061565b005b600047905090565b7faaaf03c480f43393f2414d5013b316f6cc36576bed29ae1ea15d8936dcc0d5e734604051608e919060af565b60405180910390a1565b6000819050919050565b60a9816098565b82525050565b600060208201905060c2600083018460a2565b9291505056fea264697066735822122063562bd04092c48191fa1c4756cd83c2e242dd5b354fead84dd5b46e768b064864736f6c634300080d0033",
  "immutableReferences": {},
  "source": "// SPDX-License-Identifier: MIT\npragma solidity ^0.8.0;\n\n/**\n * Example of representation of any external stake-holding contract \n * that receives stacked funds and then emits Complete(uint) event\n */\ncontract ExternalContract {\n    /// @notice Event to keep eye on process completion\n    event Complete(uint collectedAmount);\n\n    /// @notice Basic receive funds function\n    /// @dev Emits Complete event \n    function complete() external payable {\n        emit Complete(msg.value);\n    }\n\n    /// @notice Contract balance getter, test purposes only\n    function getBalance() public view returns(uint) {\n        return address(this).balance;\n    }\n}",
  "sourcePath": "/Users/matkuch/Code/staking-app/contracts/ExternalContract.sol",
  "compiler": {
    "name": "solc",
    "version": "0.8.13+commit.abaa5c0e.Emscripten.clang"
  },
  "schemaVersion": "3.4.6",
  "updatedAt": "2022-04-09T22:14:28.693Z",
  "devdoc": {
    "kind": "dev",
    "methods": {
      "complete()": {
        "details": "Emits Complete event "
      }
    },
    "version": 1
  },
  "userdoc": {
    "events": {
      "Complete(uint256)": {
        "notice": "Event to keep eye on process completion"
      }
    },
    "kind": "user",
    "methods": {
      "complete()": {
        "notice": "Basic receive funds function"
      },
      "getBalance()": {
        "notice": "Contract balance getter, test purposes only"
      }
    },
    "notice": "Example of representation of any external stake-holding contract  that receives stacked funds and then emits Complete(uint) event",
    "version": 1
  }
}