{
  "contractName": "Staker",
  "abi": [
    {
      "anonymous": false,
      "inputs": [
        {
          "indexed": false,
          "internalType": "address",
          "name": "stakingUser",
          "type": "address"
        },
        {
          "indexed": false,
          "internalType": "uint256",
          "name": "amount",
          "type": "uint256"
        }
      ],
      "name": "Stake",
      "type": "event"
    },
    {
      "inputs": [
        {
          "internalType": "address",
          "name": "",
          "type": "address"
        }
      ],
      "name": "balances",
      "outputs": [
        {
          "internalType": "uint256",
          "name": "",
          "type": "uint256"
        }
      ],
      "stateMutability": "view",
      "type": "function",
      "constant": true
    },
    {
      "inputs": [],
      "name": "stake",
      "outputs": [],
      "stateMutability": "payable",
      "type": "function",
      "payable": true
    }
  ],
  "bytecode": "0x6080604052601e42610011919061005f565b60005534801561002057600080fd5b506100b5565b6000819050919050565b7f4e487b7100000000000000000000000000000000000000000000000000000000600052601160045260246000fd5b600061006a82610026565b915061007583610026565b9250827fffffffffffffffffffffffffffffffffffffffffffffffffffffffffffffffff038211156100aa576100a9610030565b5b828201905092915050565b610395806100c46000396000f3fe6080604052600436106100295760003560e01c806327e235e31461002e5780633a4b66f11461006b575b600080fd5b34801561003a57600080fd5b50610055600480360381019061005091906101c4565b610075565b604051610062919061020a565b60405180910390f35b61007361008d565b005b60016020528060005260406000206000915090505481565b600034116100d0576040517f08c379a00000000000000000000000000000000000000000000000000000000081526004016100c790610282565b60405180910390fd5b34600160003373ffffffffffffffffffffffffffffffffffffffff1673ffffffffffffffffffffffffffffffffffffffff168152602001908152602001600020600082825461011f91906102d1565b925050819055507febedb8b3c678666e7f36970bc8f57abf6d8fa2e828c0da91ea5b75bf68ed101a3334604051610157929190610336565b60405180910390a1565b600080fd5b600073ffffffffffffffffffffffffffffffffffffffff82169050919050565b600061019182610166565b9050919050565b6101a181610186565b81146101ac57600080fd5b50565b6000813590506101be81610198565b92915050565b6000602082840312156101da576101d9610161565b5b60006101e8848285016101af565b91505092915050565b6000819050919050565b610204816101f1565b82525050565b600060208201905061021f60008301846101fb565b92915050565b600082825260208201905092915050565b7f5374616b65723a2055736572206973207374616b696e67203045544800000000600082015250565b600061026c601c83610225565b915061027782610236565b602082019050919050565b6000602082019050818103600083015261029b8161025f565b9050919050565b7f4e487b7100000000000000000000000000000000000000000000000000000000600052601160045260246000fd5b60006102dc826101f1565b91506102e7836101f1565b9250827fffffffffffffffffffffffffffffffffffffffffffffffffffffffffffffffff0382111561031c5761031b6102a2565b5b828201905092915050565b61033081610186565b82525050565b600060408201905061034b6000830185610327565b61035860208301846101fb565b939250505056fea2646970667358221220c10ad14518035ab429a8ef8df725c63226b49d2d62d866481e5c60ff391078d664736f6c634300080d0033",
  "immutableReferences": {},
  "source": "// SPDX-License-Identifier: MIT\npragma solidity ^0.8.0;\n\n/**\n * Core contract of decentralized staking app, provides basic mechanism of Ether stacking\n * @author kchn9\n */\ncontract Staker {\n    /// @notice Event used to allow dApp frontend keep track of stake changes\n    event Stake(address stakingUser, uint amount);\n\n    /// @notice Amount of time the user has to stake ETH to earn \n    uint constant DEADLINE_TIME = 30 seconds;\n    uint deadline = block.timestamp + DEADLINE_TIME;\n\n    /// @notice The minimum amount of ETH that must be stacked by users to earn\n    uint constant THRESHOLD = 1 ether;\n\n    /// @notice Keep track of user balances\n    mapping ( address => uint ) public balances;\n\n    /**\n     * @notice Stakes user funds to this contract balance\n     * @dev Emits Stake event\n     */\n    function stake() external payable {\n        require(msg.value > 0, \"Staker: User is staking 0ETH\");\n        balances[msg.sender] += msg.value;\n        emit Stake(msg.sender, msg.value);\n    }\n\n}",
  "sourcePath": "/Users/matkuch/Code/staking-app/contracts/Staker.sol",
  "compiler": {
    "name": "solc",
    "version": "0.8.13+commit.abaa5c0e.Emscripten.clang"
  },
  "schemaVersion": "3.4.6",
  "updatedAt": "2022-04-07T22:25:26.425Z",
  "networkType": "ethereum",
  "devdoc": {
    "author": "kchn9",
    "kind": "dev",
    "methods": {
      "stake()": {
        "details": "Emits Stake event"
      }
    },
    "version": 1
  },
  "userdoc": {
    "events": {
      "Stake(address,uint256)": {
        "notice": "Event used to allow dApp frontend keep track of stake changes"
      }
    },
    "kind": "user",
    "methods": {
      "balances(address)": {
        "notice": "Keep track of user balances"
      },
      "stake()": {
        "notice": "Stakes user funds to this contract balance"
      }
    },
    "notice": "Core contract of decentralized staking app, provides basic mechanism of Ether stacking",
    "version": 1
  }
}