{
  "contractName": "Staker",
  "abi": [
    {
      "anonymous": false,
      "inputs": [],
      "name": "Open",
      "type": "event"
    },
    {
      "anonymous": false,
      "inputs": [
        {
          "indexed": false,
          "internalType": "address",
          "name": "stakingUser",
          "type": "address"
        },
        {
          "indexed": false,
          "internalType": "uint256",
          "name": "amount",
          "type": "uint256"
        }
      ],
      "name": "Stake",
      "type": "event"
    },
    {
      "anonymous": false,
      "inputs": [
        {
          "indexed": false,
          "internalType": "address",
          "name": "externalAddress",
          "type": "address"
        },
        {
          "indexed": false,
          "internalType": "uint256",
          "name": "amount",
          "type": "uint256"
        }
      ],
      "name": "StakeSent",
      "type": "event"
    },
    {
      "anonymous": false,
      "inputs": [
        {
          "indexed": false,
          "internalType": "address",
          "name": "who",
          "type": "address"
        },
        {
          "indexed": false,
          "internalType": "uint256",
          "name": "amount",
          "type": "uint256"
        }
      ],
      "name": "Withdrawal",
      "type": "event"
    },
    {
      "inputs": [
        {
          "internalType": "address",
          "name": "",
          "type": "address"
        }
      ],
      "name": "balances",
      "outputs": [
        {
          "internalType": "uint256",
          "name": "",
          "type": "uint256"
        }
      ],
      "stateMutability": "view",
      "type": "function",
      "constant": true
    },
    {
      "stateMutability": "payable",
      "type": "receive",
      "payable": true
    },
    {
      "inputs": [],
      "name": "getBalance",
      "outputs": [
        {
          "internalType": "uint256",
          "name": "",
          "type": "uint256"
        }
      ],
      "stateMutability": "view",
      "type": "function",
      "constant": true
    },
    {
      "inputs": [],
      "name": "getTimeLeft",
      "outputs": [
        {
          "internalType": "uint256",
          "name": "",
          "type": "uint256"
        }
      ],
      "stateMutability": "view",
      "type": "function",
      "constant": true
    },
    {
      "inputs": [],
      "name": "stake",
      "outputs": [],
      "stateMutability": "payable",
      "type": "function",
      "payable": true
    },
    {
      "inputs": [],
      "name": "execute",
      "outputs": [],
      "stateMutability": "nonpayable",
      "type": "function"
    },
    {
      "inputs": [],
      "name": "withdraw",
      "outputs": [],
      "stateMutability": "nonpayable",
      "type": "function"
    }
  ],
  "bytecode": "0x6080604052604051610010906100c4565b604051809103906000f08015801561002c573d6000803e3d6000fd5b506000806101000a81548173ffffffffffffffffffffffffffffffffffffffff021916908373ffffffffffffffffffffffffffffffffffffffff160217905550603c42610079919061010b565b6001556000600360006101000a81548160ff0219169083151502179055506000600360016101000a81548160ff0219169083151502179055503480156100be57600080fd5b50610161565b61011d806200111d83390190565b6000819050919050565b7f4e487b7100000000000000000000000000000000000000000000000000000000600052601160045260246000fd5b6000610116826100d2565b9150610121836100d2565b9250827fffffffffffffffffffffffffffffffffffffffffffffffffffffffffffffffff03821115610156576101556100dc565b5b828201905092915050565b610fac80620001716000396000f3fe6080604052600436106100595760003560e01c806312065fe01461013857806327e235e3146101635780633a4b66f1146101a05780633ccfd60b146101aa57806361461954146101c1578063c7e284b8146101d857610133565b366101335760015442106100a2576040517f08c379a000000000000000000000000000000000000000000000000000000000815260040161009990610934565b60405180910390fd5b34600260003373ffffffffffffffffffffffffffffffffffffffff1673ffffffffffffffffffffffffffffffffffffffff16815260200190815260200160002060008282546100f1919061098d565b925050819055507febedb8b3c678666e7f36970bc8f57abf6d8fa2e828c0da91ea5b75bf68ed101a3334604051610129929190610a33565b60405180910390a1005b600080fd5b34801561014457600080fd5b5061014d610203565b60405161015a9190610a5c565b60405180910390f35b34801561016f57600080fd5b5061018a60048036038101906101859190610aa8565b61020b565b6040516101979190610a5c565b60405180910390f35b6101a8610223565b005b3480156101b657600080fd5b506101bf61033b565b005b3480156101cd57600080fd5b506101d6610556565b005b3480156101e457600080fd5b506101ed610888565b6040516101fa9190610a5c565b60405180910390f35b600047905090565b60026020528060005260406000206000915090505481565b6001544210610267576040517f08c379a000000000000000000000000000000000000000000000000000000000815260040161025e90610934565b60405180910390fd5b600034116102aa576040517f08c379a00000000000000000000000000000000000000000000000000000000081526004016102a190610b47565b60405180910390fd5b34600260003373ffffffffffffffffffffffffffffffffffffffff1673ffffffffffffffffffffffffffffffffffffffff16815260200190815260200160002060008282546102f9919061098d565b925050819055507febedb8b3c678666e7f36970bc8f57abf6d8fa2e828c0da91ea5b75bf68ed101a3334604051610331929190610a33565b60405180910390a1565b600360019054906101000a900460ff1661038a576040517f08c379a000000000000000000000000000000000000000000000000000000000815260040161038190610bff565b60405180910390fd5b60003390506000600260008373ffffffffffffffffffffffffffffffffffffffff1673ffffffffffffffffffffffffffffffffffffffff16815260200190815260200160002054905060008111610416576040517f08c379a000000000000000000000000000000000000000000000000000000000815260040161040d90610c6b565b60405180910390fd5b80600260008473ffffffffffffffffffffffffffffffffffffffff1673ffffffffffffffffffffffffffffffffffffffff16815260200190815260200160002060008282546104659190610c8b565b9250508190555060008273ffffffffffffffffffffffffffffffffffffffff168260405161049290610cf0565b60006040518083038185875af1925050503d80600081146104cf576040519150601f19603f3d011682016040523d82523d6000602084013e6104d4565b606091505b5050905080610518576040517f08c379a000000000000000000000000000000000000000000000000000000000815260040161050f90610d51565b60405180910390fd5b7f7fcf532c15f0a6db0bd6d0e038bea71d30d808c7d98cb3bf7268a95bf5081b658383604051610549929190610dd0565b60405180910390a1505050565b60015442101561059b576040517f08c379a000000000000000000000000000000000000000000000000000000000815260040161059290610e6b565b60405180910390fd5b600360009054906101000a900460ff16156105eb576040517f08c379a00000000000000000000000000000000000000000000000000000000081526004016105e290610efd565b60405180910390fd5b670de0b6b3a76400003073ffffffffffffffffffffffffffffffffffffffff166312065fe06040518163ffffffff1660e01b8152600401602060405180830381865afa15801561063f573d6000803e3d6000fd5b505050506040513d601f19601f820116820180604052508101906106639190610f49565b10610823577f0d65baa3f5024928559313e1ead167570a5661a1b3e56fb6a443e8cc8ab5e0cc60008054906101000a900473ffffffffffffffffffffffffffffffffffffffff163073ffffffffffffffffffffffffffffffffffffffff166312065fe06040518163ffffffff1660e01b8152600401602060405180830381865afa1580156106f5573d6000803e3d6000fd5b505050506040513d601f19601f820116820180604052508101906107199190610f49565b604051610727929190610a33565b60405180910390a160008054906101000a900473ffffffffffffffffffffffffffffffffffffffff1673ffffffffffffffffffffffffffffffffffffffff1663522e11773073ffffffffffffffffffffffffffffffffffffffff166312065fe06040518163ffffffff1660e01b8152600401602060405180830381865afa1580156107b6573d6000803e3d6000fd5b505050506040513d601f19601f820116820180604052508101906107da9190610f49565b6040518263ffffffff1660e01b81526004016000604051808303818588803b15801561080557600080fd5b505af1158015610819573d6000803e3d6000fd5b5050505050610886565b6001600360016101000a81548160ff0219169083151502179055506001600360006101000a81548160ff0219169083151502179055507f59ebeb90bc63057b6515673c3ecf9438e5058bca0f92585014eced636878c9a560405160405180910390a15b565b60004260015411156108a957426001546108a29190610c8b565b90506108ae565b600090505b90565b600082825260208201905092915050565b7f5374616b65723a205374616b696e67207068617365206973206f76657220616c60008201527f7265616479000000000000000000000000000000000000000000000000000000602082015250565b600061091e6025836108b1565b9150610929826108c2565b604082019050919050565b6000602082019050818103600083015261094d81610911565b9050919050565b6000819050919050565b7f4e487b7100000000000000000000000000000000000000000000000000000000600052601160045260246000fd5b600061099882610954565b91506109a383610954565b9250827fffffffffffffffffffffffffffffffffffffffffffffffffffffffffffffffff038211156109d8576109d761095e565b5b828201905092915050565b600073ffffffffffffffffffffffffffffffffffffffff82169050919050565b6000610a0e826109e3565b9050919050565b610a1e81610a03565b82525050565b610a2d81610954565b82525050565b6000604082019050610a486000830185610a15565b610a556020830184610a24565b9392505050565b6000602082019050610a716000830184610a24565b92915050565b600080fd5b610a8581610a03565b8114610a9057600080fd5b50565b600081359050610aa281610a7c565b92915050565b600060208284031215610abe57610abd610a77565b5b6000610acc84828501610a93565b91505092915050565b7f5374616b65723a2055736572206973206e6f74207374616b696e6720616e792060008201527f4554480000000000000000000000000000000000000000000000000000000000602082015250565b6000610b316023836108b1565b9150610b3c82610ad5565b604082019050919050565b60006020820190508181036000830152610b6081610b24565b9050919050565b7f5374616b65723a20436f6e7472616374206973206e6f74206f70656e20666f7260008201527f207769746864726177202d207374616b696e6720636f6e74696e756573202f2060208201527f7468726573686f6c642072656163686564000000000000000000000000000000604082015250565b6000610be96051836108b1565b9150610bf482610b67565b606082019050919050565b60006020820190508181036000830152610c1881610bdc565b9050919050565b7f5374616b65723a204e6f2066756e647320746f20776974686472617700000000600082015250565b6000610c55601c836108b1565b9150610c6082610c1f565b602082019050919050565b60006020820190508181036000830152610c8481610c48565b9050919050565b6000610c9682610954565b9150610ca183610954565b925082821015610cb457610cb361095e565b5b828203905092915050565b600081905092915050565b50565b6000610cda600083610cbf565b9150610ce582610cca565b600082019050919050565b6000610cfb82610ccd565b9150819050919050565b7f5374616b65723a205769746864726177206661696c6564000000000000000000600082015250565b6000610d3b6017836108b1565b9150610d4682610d05565b602082019050919050565b60006020820190508181036000830152610d6a81610d2e565b9050919050565b6000819050919050565b6000610d96610d91610d8c846109e3565b610d71565b6109e3565b9050919050565b6000610da882610d7b565b9050919050565b6000610dba82610d9d565b9050919050565b610dca81610daf565b82525050565b6000604082019050610de56000830185610dc1565b610df26020830184610a24565b9392505050565b7f5374616b65723a2054686520646561646c696e65206973206e6f74206f76657260008201527f2079657400000000000000000000000000000000000000000000000000000000602082015250565b6000610e556024836108b1565b9150610e6082610df9565b604082019050919050565b60006020820190508181036000830152610e8481610e48565b9050919050565b7f5374616b65723a20436f6e747261637420686173206265656e2065786563757460008201527f656420616c726561647900000000000000000000000000000000000000000000602082015250565b6000610ee7602a836108b1565b9150610ef282610e8b565b604082019050919050565b60006020820190508181036000830152610f1681610eda565b9050919050565b610f2681610954565b8114610f3157600080fd5b50565b600081519050610f4381610f1d565b92915050565b600060208284031215610f5f57610f5e610a77565b5b6000610f6d84828501610f34565b9150509291505056fea2646970667358221220783612f09015b598c8fd02d5f5857edc2f1b46cf0a4fe6d4c6d2e24e1d407cc664736f6c634300080d0033608060405234801561001057600080fd5b5060fe8061001f6000396000f3fe60806040526004361060265760003560e01c806312065fe014602b578063522e1177146051575b600080fd5b348015603657600080fd5b50603d6059565b6040516048919060af565b60405180910390f35b60576061565b005b600047905090565b7faaaf03c480f43393f2414d5013b316f6cc36576bed29ae1ea15d8936dcc0d5e734604051608e919060af565b60405180910390a1565b6000819050919050565b60a9816098565b82525050565b600060208201905060c2600083018460a2565b9291505056fea264697066735822122063562bd04092c48191fa1c4756cd83c2e242dd5b354fead84dd5b46e768b064864736f6c634300080d0033",
  "immutableReferences": {},
  "source": "// SPDX-License-Identifier: MIT\npragma solidity ^0.8.0;\n\nimport \"./ExternalContract.sol\";\n\n/**\n * Core contract of decentralized staking app, provides basic mechanism of Ether stacking\n * @author kchn9\n */\ncontract Staker {\n    /// @notice Event used to allow dApp frontend keep track of stake changes\n    event Stake(address stakingUser, uint amount);\n\n    /// @notice Emited when users are allowed to withdraw their funds\n    event Open();\n\n    /// @notice Keeping an eye on withdrawals\n    event Withdrawal(address who, uint amount);\n\n    /// @notice Keeps track of sent Stake to external stake-holding contract\n    event StakeSent(address externalAddress, uint amount);\n\n    /// @notice Representation of any external stake-holding contract\n    ExternalContract example = new ExternalContract();\n\n    /// @notice Amount of time the user has to stake ETH to earn \n    uint constant DEADLINE_TIME = 60 seconds;\n    uint deadline = block.timestamp + DEADLINE_TIME;\n\n    /// @notice The minimum amount of ETH that must be stacked by users to earn\n    uint constant THRESHOLD = 1 ether;\n\n    /// @notice Keep track of user balances\n    mapping ( address => uint ) public balances;\n\n    /// @notice Keep track if contract was executed already\n    bool wasExecuted = false;\n\n    /// @notice Bool allowing users to withdraw if threshold was not exceeded\n    bool openForWithdraw = false;\n\n    /// @notice Access modifier to allow call functions only before stacking is over\n    modifier stakingOnly() {\n        require(block.timestamp < deadline, \"Staker: Staking phase is over already\");\n        _;\n    }\n\n    /// @notice Getter for current contract balance - mostly for test purposes\n    function getBalance() public view returns(uint256) {\n        return address(this).balance;\n    }\n\n    /**\n     * @notice Getter to keep eye on how much time left before staking ends - mostly for test purposes\n     */\n    function getTimeLeft() public view returns(uint256) {\n        if (deadline > block.timestamp) {\n            return deadline - block.timestamp;\n        } else {\n            return 0;\n        }\n    }\n\n    /**\n     * @notice Stakes user funds to this contract balance\n     * @dev Emits Stake event\n     */\n    function stake() external payable stakingOnly {\n        require(msg.value > 0, \"Staker: User is not staking any ETH\");\n        balances[msg.sender] += msg.value;\n        emit Stake(msg.sender, msg.value);\n    }\n\n    /**\n     * @dev Fallback function for ETH that been sent directionally\n     */\n    receive() external payable stakingOnly {\n        balances[msg.sender] += msg.value;\n        emit Stake(msg.sender, msg.value);\n    }\n\n    /**\n     * @notice Checks if staking time is up, checks if treshold is exceeded - if so it send money to external contract,\n     * if not it allow users to withdraw their coins. It may be called only once.\n     * @dev Emits either StakeSent(address, uint) or Open() events, depends if threshold is exceeded\n     */\n    function execute() public {\n        require(block.timestamp >= deadline, \"Staker: The deadline is not over yet\");\n        require(!wasExecuted, \"Staker: Contract has been executed already\");\n        if (this.getBalance() >= THRESHOLD) {\n            emit StakeSent(address(example), this.getBalance());\n            example.complete{ value: this.getBalance() }();\n        } else {\n            openForWithdraw = true;\n            wasExecuted = true;\n            emit Open();\n        }\n    }\n\n    /**\n     * @notice Allows users to withdraw their funds if staking phase is over\n     * @dev Emits Withdrawal event\n     */\n    function withdraw() public {\n        require(openForWithdraw, \"Staker: Contract is not open for withdraw - staking continues / threshold reached\");\n        address payable to = payable(msg.sender);\n        uint toWithdraw = balances[to];\n\n        require(toWithdraw > 0, \"Staker: No funds to withdraw\");\n        balances[to] -= toWithdraw;\n\n        (bool success, ) = to.call{ value: toWithdraw }(\"\");\n        require(success, \"Staker: Withdraw failed\");\n        emit Withdrawal(to, toWithdraw);\n    }\n}",
  "sourcePath": "/Users/matkuch/Code/staking-app/contracts/Staker.sol",
  "compiler": {
    "name": "solc",
    "version": "0.8.13+commit.abaa5c0e.Emscripten.clang"
  },
  "schemaVersion": "3.4.6",
  "updatedAt": "2022-04-09T22:14:36.892Z",
  "networkType": "ethereum",
  "devdoc": {
    "author": "kchn9",
    "kind": "dev",
    "methods": {
      "execute()": {
        "details": "Emits either StakeSent(address, uint) or Open() events, depends if threshold is exceeded"
      },
      "stake()": {
        "details": "Emits Stake event"
      },
      "withdraw()": {
        "details": "Emits Withdrawal event"
      }
    },
    "version": 1
  },
  "userdoc": {
    "events": {
      "Open()": {
        "notice": "Emited when users are allowed to withdraw their funds"
      },
      "Stake(address,uint256)": {
        "notice": "Event used to allow dApp frontend keep track of stake changes"
      },
      "StakeSent(address,uint256)": {
        "notice": "Keeps track of sent Stake to external stake-holding contract"
      },
      "Withdrawal(address,uint256)": {
        "notice": "Keeping an eye on withdrawals"
      }
    },
    "kind": "user",
    "methods": {
      "balances(address)": {
        "notice": "Keep track of user balances"
      },
      "execute()": {
        "notice": "Checks if staking time is up, checks if treshold is exceeded - if so it send money to external contract, if not it allow users to withdraw their coins. It may be called only once."
      },
      "getBalance()": {
        "notice": "Getter for current contract balance - mostly for test purposes"
      },
      "getTimeLeft()": {
        "notice": "Getter to keep eye on how much time left before staking ends - mostly for test purposes"
      },
      "stake()": {
        "notice": "Stakes user funds to this contract balance"
      },
      "withdraw()": {
        "notice": "Allows users to withdraw their funds if staking phase is over"
      }
    },
    "notice": "Core contract of decentralized staking app, provides basic mechanism of Ether stacking",
    "version": 1
  }
}